{
  "contractName": "FC",
  "abi": [
    {
      "constant": true,
      "inputs": [],
      "name": "isBurnPaused",
      "outputs": [
        {
          "name": "",
          "type": "bool"
        }
      ],
      "payable": false,
      "stateMutability": "view",
      "type": "function"
    },
    {
      "constant": true,
      "inputs": [],
      "name": "isMigratePaused",
      "outputs": [
        {
          "name": "",
          "type": "bool"
        }
      ],
      "payable": false,
      "stateMutability": "view",
      "type": "function"
    },
    {
      "constant": true,
      "inputs": [
        {
          "name": "account",
          "type": "address"
        }
      ],
      "name": "isAdmin",
      "outputs": [
        {
          "name": "",
          "type": "bool"
        }
      ],
      "payable": false,
      "stateMutability": "view",
      "type": "function"
    },
    {
      "constant": false,
      "inputs": [
        {
          "name": "account",
          "type": "address"
        }
      ],
      "name": "removeMinter",
      "outputs": [],
      "payable": false,
      "stateMutability": "nonpayable",
      "type": "function"
    },
    {
      "constant": true,
      "inputs": [],
      "name": "onlyPauserMock",
      "outputs": [],
      "payable": false,
      "stateMutability": "view",
      "type": "function"
    },
    {
      "constant": true,
      "inputs": [
        {
          "name": "account",
          "type": "address"
        }
      ],
      "name": "isPauser",
      "outputs": [
        {
          "name": "",
          "type": "bool"
        }
      ],
      "payable": false,
      "stateMutability": "view",
      "type": "function"
    },
    {
      "constant": false,
      "inputs": [],
      "name": "pauseAfterInitialization",
      "outputs": [],
      "payable": false,
      "stateMutability": "nonpayable",
      "type": "function"
    },
    {
      "constant": false,
      "inputs": [
        {
          "name": "account",
          "type": "address"
        }
      ],
      "name": "removePauser",
      "outputs": [],
      "payable": false,
      "stateMutability": "nonpayable",
      "type": "function"
    },
    {
      "constant": false,
      "inputs": [],
      "name": "renouncePauser",
      "outputs": [],
      "payable": false,
      "stateMutability": "nonpayable",
      "type": "function"
    },
    {
      "constant": false,
      "inputs": [
        {
          "name": "account",
          "type": "address"
        }
      ],
      "name": "addAdmin",
      "outputs": [],
      "payable": false,
      "stateMutability": "nonpayable",
      "type": "function"
    },
    {
      "constant": false,
      "inputs": [
        {
          "name": "account",
          "type": "address"
        }
      ],
      "name": "addPauser",
      "outputs": [],
      "payable": false,
      "stateMutability": "nonpayable",
      "type": "function"
    },
    {
      "constant": false,
      "inputs": [],
      "name": "renounceAdmin",
      "outputs": [],
      "payable": false,
      "stateMutability": "nonpayable",
      "type": "function"
    },
    {
      "constant": true,
      "inputs": [],
      "name": "onlyAdminMock",
      "outputs": [],
      "payable": false,
      "stateMutability": "view",
      "type": "function"
    },
    {
      "constant": false,
      "inputs": [
        {
          "name": "account",
          "type": "address"
        }
      ],
      "name": "addMinter",
      "outputs": [],
      "payable": false,
      "stateMutability": "nonpayable",
      "type": "function"
    },
    {
      "constant": false,
      "inputs": [],
      "name": "renounceMinter",
      "outputs": [],
      "payable": false,
      "stateMutability": "nonpayable",
      "type": "function"
    },
    {
      "constant": true,
      "inputs": [],
      "name": "isTransferPaused",
      "outputs": [
        {
          "name": "",
          "type": "bool"
        }
      ],
      "payable": false,
      "stateMutability": "view",
      "type": "function"
    },
    {
      "constant": true,
      "inputs": [
        {
          "name": "account",
          "type": "address"
        }
      ],
      "name": "isMinter",
      "outputs": [
        {
          "name": "",
          "type": "bool"
        }
      ],
      "payable": false,
      "stateMutability": "view",
      "type": "function"
    },
    {
      "constant": true,
      "inputs": [],
      "name": "onlyMinterMock",
      "outputs": [],
      "payable": false,
      "stateMutability": "view",
      "type": "function"
    },
    {
      "constant": false,
      "inputs": [],
      "name": "pauseForExchange",
      "outputs": [],
      "payable": false,
      "stateMutability": "nonpayable",
      "type": "function"
    },
    {
      "constant": false,
      "inputs": [],
      "name": "pauseDuringMigration",
      "outputs": [],
      "payable": false,
      "stateMutability": "nonpayable",
      "type": "function"
    },
    {
      "constant": false,
      "inputs": [],
      "name": "pauseBeforeMigration",
      "outputs": [],
      "payable": false,
      "stateMutability": "nonpayable",
      "type": "function"
    },
    {
      "inputs": [],
      "payable": false,
      "stateMutability": "nonpayable",
      "type": "constructor"
    },
    {
      "anonymous": false,
      "inputs": [
        {
          "indexed": false,
          "name": "account",
          "type": "address"
        }
      ],
      "name": "TransferPaused",
      "type": "event"
    },
    {
      "anonymous": false,
      "inputs": [
        {
          "indexed": false,
          "name": "account",
          "type": "address"
        }
      ],
      "name": "TransferUnpaused",
      "type": "event"
    },
    {
      "anonymous": false,
      "inputs": [
        {
          "indexed": false,
          "name": "account",
          "type": "address"
        }
      ],
      "name": "BurnPaused",
      "type": "event"
    },
    {
      "anonymous": false,
      "inputs": [
        {
          "indexed": false,
          "name": "account",
          "type": "address"
        }
      ],
      "name": "BurnUnpaused",
      "type": "event"
    },
    {
      "anonymous": false,
      "inputs": [
        {
          "indexed": false,
          "name": "account",
          "type": "address"
        }
      ],
      "name": "MigratePaused",
      "type": "event"
    },
    {
      "anonymous": false,
      "inputs": [
        {
          "indexed": false,
          "name": "account",
          "type": "address"
        }
      ],
      "name": "MigrateUnpaused",
      "type": "event"
    },
    {
      "anonymous": false,
      "inputs": [
        {
          "indexed": true,
          "name": "account",
          "type": "address"
        }
      ],
      "name": "MinterAdded",
      "type": "event"
    },
    {
      "anonymous": false,
      "inputs": [
        {
          "indexed": true,
          "name": "account",
          "type": "address"
        }
      ],
      "name": "MinterRemoved",
      "type": "event"
    },
    {
      "anonymous": false,
      "inputs": [
        {
          "indexed": true,
          "name": "account",
          "type": "address"
        }
      ],
      "name": "PauserAdded",
      "type": "event"
    },
    {
      "anonymous": false,
      "inputs": [
        {
          "indexed": true,
          "name": "account",
          "type": "address"
        }
      ],
      "name": "PauserRemoved",
      "type": "event"
    },
    {
      "anonymous": false,
      "inputs": [
        {
          "indexed": true,
          "name": "account",
          "type": "address"
        }
      ],
      "name": "AdminAdded",
      "type": "event"
    },
    {
      "anonymous": false,
      "inputs": [
        {
          "indexed": true,
          "name": "account",
          "type": "address"
        }
      ],
      "name": "AdminRemoved",
      "type": "event"
    },
    {
      "anonymous": false,
      "inputs": [
        {
          "indexed": true,
          "name": "from",
          "type": "address"
        },
        {
          "indexed": true,
          "name": "to",
          "type": "address"
        },
        {
          "indexed": false,
          "name": "value",
          "type": "uint256"
        }
      ],
      "name": "Transfer",
      "type": "event"
    },
    {
      "anonymous": false,
      "inputs": [
        {
          "indexed": true,
          "name": "account",
          "type": "address"
        },
        {
          "indexed": false,
          "name": "value",
          "type": "uint256"
        }
      ],
      "name": "Lock",
      "type": "event"
    },
    {
      "anonymous": false,
      "inputs": [
        {
          "indexed": true,
          "name": "account",
          "type": "address"
        },
        {
          "indexed": false,
          "name": "CPool",
          "type": "uint256"
        },
        {
          "indexed": false,
          "name": "PPool",
          "type": "uint256"
        },
        {
          "indexed": false,
          "name": "PPoolLocked",
          "type": "uint256"
        }
      ],
      "name": "Write",
      "type": "event"
    },
    {
      "constant": true,
      "inputs": [],
      "name": "name",
      "outputs": [
        {
          "name": "",
          "type": "string"
        }
      ],
      "payable": false,
      "stateMutability": "view",
      "type": "function"
    },
    {
      "constant": true,
      "inputs": [],
      "name": "symbol",
      "outputs": [
        {
          "name": "",
          "type": "string"
        }
      ],
      "payable": false,
      "stateMutability": "view",
      "type": "function"
    },
    {
      "constant": true,
      "inputs": [],
      "name": "decimals",
      "outputs": [
        {
          "name": "",
          "type": "uint8"
        }
      ],
      "payable": false,
      "stateMutability": "view",
      "type": "function"
    },
    {
      "constant": true,
      "inputs": [],
      "name": "cap",
      "outputs": [
        {
          "name": "",
          "type": "uint256"
        }
      ],
      "payable": false,
      "stateMutability": "view",
      "type": "function"
    },
    {
      "constant": true,
      "inputs": [],
      "name": "totalSupply",
      "outputs": [
        {
          "name": "",
          "type": "uint256"
        }
      ],
      "payable": false,
      "stateMutability": "view",
      "type": "function"
    },
    {
      "constant": true,
      "inputs": [
        {
          "name": "account",
          "type": "address"
        }
      ],
      "name": "balanceOf",
      "outputs": [
        {
          "name": "",
          "type": "uint256"
        }
      ],
      "payable": false,
      "stateMutability": "view",
      "type": "function"
    },
    {
      "constant": true,
      "inputs": [],
      "name": "circulationRatio",
      "outputs": [
        {
          "name": "",
          "type": "uint256"
        }
      ],
      "payable": false,
      "stateMutability": "view",
      "type": "function"
    },
    {
      "constant": true,
      "inputs": [
        {
          "name": "account",
          "type": "address"
        }
      ],
      "name": "stateOf",
      "outputs": [
        {
          "name": "",
          "type": "uint256"
        },
        {
          "name": "",
          "type": "uint256"
        },
        {
          "name": "",
          "type": "uint256"
        }
      ],
      "payable": false,
      "stateMutability": "view",
      "type": "function"
    },
    {
      "constant": true,
      "inputs": [],
      "name": "accountList",
      "outputs": [
        {
          "name": "",
          "type": "address[]"
        }
      ],
      "payable": false,
      "stateMutability": "view",
      "type": "function"
    },
    {
      "constant": false,
      "inputs": [
        {
          "name": "account",
          "type": "address"
        },
        {
          "name": "ConfluxPool",
          "type": "uint256"
        },
        {
          "name": "Personal",
          "type": "uint256"
        },
        {
          "name": "Locked",
          "type": "uint256"
        }
      ],
      "name": "setStateOf",
      "outputs": [],
      "payable": false,
      "stateMutability": "nonpayable",
      "type": "function"
    },
    {
      "constant": false,
      "inputs": [
        {
          "name": "total",
          "type": "uint256"
        }
      ],
      "name": "setTotalSupply",
      "outputs": [],
      "payable": false,
      "stateMutability": "nonpayable",
      "type": "function"
    },
    {
      "constant": false,
      "inputs": [
        {
          "name": "value",
          "type": "uint256"
        }
      ],
      "name": "setCirculationRatio",
      "outputs": [],
      "payable": false,
      "stateMutability": "nonpayable",
      "type": "function"
    },
    {
      "constant": false,
      "inputs": [
        {
          "name": "account",
          "type": "address"
        },
        {
          "name": "value",
          "type": "uint256"
        }
      ],
      "name": "mint",
      "outputs": [
        {
          "name": "",
          "type": "bool"
        }
      ],
      "payable": false,
      "stateMutability": "nonpayable",
      "type": "function"
    },
    {
      "constant": false,
      "inputs": [
        {
          "name": "recipient",
          "type": "address"
        },
        {
          "name": "value",
          "type": "uint256"
        }
      ],
      "name": "transfer",
      "outputs": [
        {
          "name": "",
          "type": "bool"
        }
      ],
      "payable": false,
      "stateMutability": "nonpayable",
      "type": "function"
    },
    {
      "constant": false,
      "inputs": [
        {
          "name": "value",
          "type": "uint256"
        }
      ],
      "name": "burn",
      "outputs": [],
      "payable": false,
      "stateMutability": "nonpayable",
      "type": "function"
    }
  ],
  "bytecode": "0x60806040523480156200001157600080fd5b506200002c336200014e640100000000026401000000009004565b6000600360006101000a81548160ff0219169083151502179055506001600360016101000a81548160ff0219169083151502179055506001600360026101000a81548160ff0219169083151502179055506305f5e1006007819055506040805190810160405280600881526020017f46616e73436f696e00000000000000000000000000000000000000000000000081525060049080519060200190620000d592919062000389565b506040805190810160405280600281526020017f4643000000000000000000000000000000000000000000000000000000000000815250600590805190602001906200012392919062000389565b506012600660006101000a81548160ff021916908360ff160217905550606460098190555062000438565b62000172816002620001b86401000000000262003a3c179091906401000000009004565b8073ffffffffffffffffffffffffffffffffffffffff167f44d6d25963f097ad14f29f06854a01f575648a1ef82f30e562ccd3889717e33960405160405180910390a250565b620001d38282620002a7640100000000026401000000009004565b15151562000249576040517f08c379a000000000000000000000000000000000000000000000000000000000815260040180806020018281038252601f8152602001807f526f6c65733a206163636f756e7420616c72656164792068617320726f6c650081525060200191505060405180910390fd5b60018260000160008373ffffffffffffffffffffffffffffffffffffffff1673ffffffffffffffffffffffffffffffffffffffff16815260200190815260200160002060006101000a81548160ff0219169083151502179055505050565b60008073ffffffffffffffffffffffffffffffffffffffff168273ffffffffffffffffffffffffffffffffffffffff161415151562000332576040517f08c379a0000000000000000000000000000000000000000000000000000000008152600401808060200182810382526022815260200180620040f06022913960400191505060405180910390fd5b8260000160008373ffffffffffffffffffffffffffffffffffffffff1673ffffffffffffffffffffffffffffffffffffffff16815260200190815260200160002060009054906101000a900460ff16905092915050565b828054600181600116156101000203166002900490600052602060002090601f016020900481019282601f10620003cc57805160ff1916838001178555620003fd565b82800160010185558215620003fd579182015b82811115620003fc578251825591602001919060010190620003df565b5b5090506200040c919062000410565b5090565b6200043591905b808211156200043157600081600090555060010162000417565b5090565b90565b613ca880620004486000396000f3fe608060405234801561001057600080fd5b5060043610610239576000357c0100000000000000000000000000000000000000000000000000000000900480637048027511610142578063a9059cbb116100ca578063c224e4b611610099578063c224e4b61461093b578063cc943d8114610969578063f051ecc914610987578063f7ea7a3d14610991578063fa8c08a5146109bf57610239565b8063a9059cbb14610865578063aa271e1a146108cb578063b5dba35b14610927578063c00712db1461093157610239565b80638e49c16e116101115780638e49c16e1461076857806395d89b4114610772578063983b2d56146107f55780639865027514610839578063a1a1ef431461084357610239565b8063704802751461067e57806370a08231146106c257806382dc1ec41461071a5780638bad0c0a1461075e57610239565b8063352ee7ae116101c557806345b4903a1161019457806345b4903a1461056457806346fbf68e146105ca5780636a45679c146106265780636b2c0f55146106305780636ef8d66d1461067457610239565b8063352ee7ae14610453578063355274ea146104b257806340c10f19146104d057806342966c681461053657610239565b806320b0afba1161020c57806320b0afba1461036357806324d7806c146103855780633092afd5146103e1578063313ce56714610425578063329daf901461044957610239565b806306fdde031461023e5780630fc26b4b146102c157806316257e901461032357806318160ddd14610345575b600080fd5b6102466109c9565b6040518080602001828103825283818151815260200191508051906020019080838360005b8381101561028657808201518184015260208101905061026b565b50505050905090810190601f1680156102b35780820380516001836020036101000a031916815260200191505b509250505060405180910390f35b610321600480360360808110156102d757600080fd5b81019080803573ffffffffffffffffffffffffffffffffffffffff169060200190929190803590602001909291908035906020019092919080359060200190929190505050610a6b565b005b61032b610e2a565b604051808215151515815260200191505060405180910390f35b61034d610e41565b6040518082815260200191505060405180910390f35b61036b610e4b565b604051808215151515815260200191505060405180910390f35b6103c76004803603602081101561039b57600080fd5b81019080803573ffffffffffffffffffffffffffffffffffffffff169060200190929190505050610e62565b604051808215151515815260200191505060405180910390f35b610423600480360360208110156103f757600080fd5b81019080803573ffffffffffffffffffffffffffffffffffffffff169060200190929190505050610e7f565b005b61042d610eeb565b604051808260ff1660ff16815260200191505060405180910390f35b610451610f02565b005b61045b610f74565b6040518080602001828103825283818151815260200191508051906020019060200280838360005b8381101561049e578082015181840152602081019050610483565b505050509050019250505060405180910390f35b6104ba611002565b6040518082815260200191505060405180910390f35b61051c600480360360408110156104e657600080fd5b81019080803573ffffffffffffffffffffffffffffffffffffffff1690602001909291908035906020019092919050505061100c565b604051808215151515815260200191505060405180910390f35b6105626004803603602081101561054c57600080fd5b81019080803590602001909291905050506111a4565b005b6105a66004803603602081101561057a57600080fd5b81019080803573ffffffffffffffffffffffffffffffffffffffff169060200190929190505050611702565b60405180848152602001838152602001828152602001935050505060405180910390f35b61060c600480360360208110156105e057600080fd5b81019080803573ffffffffffffffffffffffffffffffffffffffff1690602001909291905050506117d4565b604051808215151515815260200191505060405180910390f35b61062e6117f1565b005b6106726004803603602081101561064657600080fd5b81019080803573ffffffffffffffffffffffffffffffffffffffff16906020019092919050505061187b565b005b61067c6118e7565b005b6106c06004803603602081101561069457600080fd5b81019080803573ffffffffffffffffffffffffffffffffffffffff1690602001909291905050506118f2565b005b610704600480360360208110156106d857600080fd5b81019080803573ffffffffffffffffffffffffffffffffffffffff16906020019092919050505061195e565b6040518082815260200191505060405180910390f35b61075c6004803603602081101561073057600080fd5b81019080803573ffffffffffffffffffffffffffffffffffffffff169060200190929190505050611a29565b005b610766611a95565b005b610770611aa0565b005b61077a611b02565b6040518080602001828103825283818151815260200191508051906020019080838360005b838110156107ba57808201518184015260208101905061079f565b50505050905090810190601f1680156107e75780820380516001836020036101000a031916815260200191505b509250505060405180910390f35b6108376004803603602081101561080b57600080fd5b81019080803573ffffffffffffffffffffffffffffffffffffffff169060200190929190505050611ba4565b005b610841611c10565b005b61084b611c1b565b604051808215151515815260200191505060405180910390f35b6108b16004803603604081101561087b57600080fd5b81019080803573ffffffffffffffffffffffffffffffffffffffff16906020019092919080359060200190929190505050611c32565b604051808215151515815260200191505060405180910390f35b61090d600480360360208110156108e157600080fd5b81019080803573ffffffffffffffffffffffffffffffffffffffff1690602001909291905050506120ad565b604051808215151515815260200191505060405180910390f35b61092f6120ca565b005b61093961213c565b005b6109676004803603602081101561095157600080fd5b81019080803590602001909291905050506121c6565b005b6109716122b4565b6040518082815260200191505060405180910390f35b61098f6122be565b005b6109bd600480360360208110156109a757600080fd5b8101908080359060200190929190505050612348565b005b6109c7612437565b005b606060048054600181600116156101000203166002900480601f016020809104026020016040519081016040528092919081815260200182805460018160011615610100020316600290048015610a615780601f10610a3657610100808354040283529160200191610a61565b820191906000526020600020905b815481529060010190602001808311610a4457829003601f168201915b5050505050905090565b610a74336117d4565b80610a845750610a8333610e62565b5b1515610adb576040517f08c379a0000000000000000000000000000000000000000000000000000000008152600401808060200182810382526039815260200180613b996039913960400191505060405180910390fd5b600360029054906101000a900460ff16151515610b60576040517f08c379a00000000000000000000000000000000000000000000000000000000081526004018080602001828103825260188152602001807f5061757361626c653a204d69677261746520706175736564000000000000000081525060200191505060405180910390fd5b600073ffffffffffffffffffffffffffffffffffffffff168473ffffffffffffffffffffffffffffffffffffffff1614151515610be8576040517f08c379a0000000000000000000000000000000000000000000000000000000008152600401808060200182810382526021815260200180613b366021913960400191505060405180910390fd5b600d60008573ffffffffffffffffffffffffffffffffffffffff1673ffffffffffffffffffffffffffffffffffffffff16815260200190815260200160002060009054906101000a900460ff161515610cfa576001600d60008673ffffffffffffffffffffffffffffffffffffffff1673ffffffffffffffffffffffffffffffffffffffff16815260200190815260200160002060006101000a81548160ff021916908315150217905550600e8490806001815401808255809150509060018203906000526020600020016000909192909190916101000a81548173ffffffffffffffffffffffffffffffffffffffff021916908373ffffffffffffffffffffffffffffffffffffffff160217905550505b82600a60008673ffffffffffffffffffffffffffffffffffffffff1673ffffffffffffffffffffffffffffffffffffffff1681526020019081526020016000208190555081600b60008673ffffffffffffffffffffffffffffffffffffffff1673ffffffffffffffffffffffffffffffffffffffff1681526020019081526020016000208190555080600c60008673ffffffffffffffffffffffffffffffffffffffff1673ffffffffffffffffffffffffffffffffffffffff168152602001908152602001600020819055508373ffffffffffffffffffffffffffffffffffffffff167fcd7ab9401a877813449135f2f003eb0f79344bd8ebdd3a144149989fe8f4a24c84848460405180848152602001838152602001828152602001935050505060405180910390a250505050565b6000600360019054906101000a900460ff16905090565b6000600854905090565b6000600360029054906101000a900460ff16905090565b6000610e788260026124c190919063ffffffff16565b9050919050565b610e8833610e62565b1515610edf576040517f08c379a000000000000000000000000000000000000000000000000000000000815260040180806020018281038252602e815260200180613bf4602e913960400191505060405180910390fd5b610ee8816125a1565b50565b6000600660009054906101000a900460ff16905090565b610f0b336117d4565b80610f1b5750610f1a33610e62565b5b1515610f72576040517f08c379a0000000000000000000000000000000000000000000000000000000008152600401808060200182810382526039815260200180613b996039913960400191505060405180910390fd5b565b6060600e805480602002602001604051908101604052809291908181526020018280548015610ff857602002820191906000526020600020905b8160009054906101000a900473ffffffffffffffffffffffffffffffffffffffff1673ffffffffffffffffffffffffffffffffffffffff1681526020019060010190808311610fae575b5050505050905090565b6000600754905090565b6000611017336120ad565b80611027575061102633610e62565b5b151561107e576040517f08c379a0000000000000000000000000000000000000000000000000000000008152600401808060200182810382526039815260200180613c446039913960400191505060405180910390fd5b600d60008473ffffffffffffffffffffffffffffffffffffffff1673ffffffffffffffffffffffffffffffffffffffff16815260200190815260200160002060009054906101000a900460ff161515611190576001600d60008573ffffffffffffffffffffffffffffffffffffffff1673ffffffffffffffffffffffffffffffffffffffff16815260200190815260200160002060006101000a81548160ff021916908315150217905550600e8390806001815401808255809150509060018203906000526020600020016000909192909190916101000a81548173ffffffffffffffffffffffffffffffffffffffff021916908373ffffffffffffffffffffffffffffffffffffffff160217905550505b61119a83836125fb565b6001905092915050565b600360019054906101000a900460ff16151515611229576040517f08c379a00000000000000000000000000000000000000000000000000000000081526004018080602001828103825260158152602001807f5061757361626c653a204275726e20706175736564000000000000000000000081525060200191505060405180910390fd5b600073ffffffffffffffffffffffffffffffffffffffff163373ffffffffffffffffffffffffffffffffffffffff16141515156112ce576040517f08c379a000000000000000000000000000000000000000000000000000000000815260040180806020018281038252601e8152602001807f46433a206275726e2066726f6d20746865207a65726f2061646472657373000081525060200191505060405180910390fd5b6113c2816113b4600c60003373ffffffffffffffffffffffffffffffffffffffff1673ffffffffffffffffffffffffffffffffffffffff168152602001908152602001600020546113a6600b60003373ffffffffffffffffffffffffffffffffffffffff1673ffffffffffffffffffffffffffffffffffffffff16815260200190815260200160002054600a60003373ffffffffffffffffffffffffffffffffffffffff1673ffffffffffffffffffffffffffffffffffffffff1681526020019081526020016000205461284d90919063ffffffff16565b61284d90919063ffffffff16565b6128d790919063ffffffff16565b5061155633611458600c60003373ffffffffffffffffffffffffffffffffffffffff1673ffffffffffffffffffffffffffffffffffffffff16815260200190815260200160002054600b60003373ffffffffffffffffffffffffffffffffffffffff1673ffffffffffffffffffffffffffffffffffffffff1681526020019081526020016000205461284d90919063ffffffff16565b8311611465576000611551565b61155061150b600b60003373ffffffffffffffffffffffffffffffffffffffff1673ffffffffffffffffffffffffffffffffffffffff168152602001908152602001600020546114fd600c60003373ffffffffffffffffffffffffffffffffffffffff1673ffffffffffffffffffffffffffffffffffffffff16815260200190815260200160002054876128d790919063ffffffff16565b6128d790919063ffffffff16565b600a60003373ffffffffffffffffffffffffffffffffffffffff1673ffffffffffffffffffffffffffffffffffffffff16815260200190815260200160002054612962565b5b61297e565b61164733600c60003373ffffffffffffffffffffffffffffffffffffffff1673ffffffffffffffffffffffffffffffffffffffff1681526020019081526020016000205483116115a7576000611642565b6116416115fc600c60003373ffffffffffffffffffffffffffffffffffffffff1673ffffffffffffffffffffffffffffffffffffffff16815260200190815260200160002054856128d790919063ffffffff16565b600b60003373ffffffffffffffffffffffffffffffffffffffff1673ffffffffffffffffffffffffffffffffffffffff16815260200190815260200160002054612962565b5b612ad7565b6116993361169483600c60003373ffffffffffffffffffffffffffffffffffffffff1673ffffffffffffffffffffffffffffffffffffffff16815260200190815260200160002054612962565b612c30565b600073ffffffffffffffffffffffffffffffffffffffff163373ffffffffffffffffffffffffffffffffffffffff167fddf252ad1be2c89b69c2b068fc378daa952ba7f163c4a11628f55a4df523b3ef836040518082815260200191505060405180910390a350565b6000806000600a60008573ffffffffffffffffffffffffffffffffffffffff1673ffffffffffffffffffffffffffffffffffffffff16815260200190815260200160002054600b60008673ffffffffffffffffffffffffffffffffffffffff1673ffffffffffffffffffffffffffffffffffffffff16815260200190815260200160002054600c60008773ffffffffffffffffffffffffffffffffffffffff1673ffffffffffffffffffffffffffffffffffffffff168152602001908152602001600020549250925092509193909250565b60006117ea8260016124c190919063ffffffff16565b9050919050565b6117fa336117d4565b8061180a575061180933610e62565b5b1515611861576040517f08c379a0000000000000000000000000000000000000000000000000000000008152600401808060200182810382526039815260200180613b996039913960400191505060405180910390fd5b611869612d89565b611871612e09565b611879612e89565b565b61188433610e62565b15156118db576040517f08c379a000000000000000000000000000000000000000000000000000000000815260040180806020018281038252602e815260200180613bf4602e913960400191505060405180910390fd5b6118e481612f09565b50565b6118f033612f09565b565b6118fb33610e62565b1515611952576040517f08c379a000000000000000000000000000000000000000000000000000000000815260040180806020018281038252602e815260200180613bf4602e913960400191505060405180910390fd5b61195b81612f63565b50565b6000600c60008373ffffffffffffffffffffffffffffffffffffffff1673ffffffffffffffffffffffffffffffffffffffff16815260200190815260200160002054600b60008473ffffffffffffffffffffffffffffffffffffffff1673ffffffffffffffffffffffffffffffffffffffff16815260200190815260200160002054600a60008573ffffffffffffffffffffffffffffffffffffffff1673ffffffffffffffffffffffffffffffffffffffff1681526020019081526020016000205401019050919050565b611a3233610e62565b1515611a89576040517f08c379a000000000000000000000000000000000000000000000000000000000815260040180806020018281038252602e815260200180613bf4602e913960400191505060405180910390fd5b611a9281612fbd565b50565b611a9e33613017565b565b611aa933610e62565b1515611b00576040517f08c379a000000000000000000000000000000000000000000000000000000000815260040180806020018281038252602e815260200180613bf4602e913960400191505060405180910390fd5b565b606060058054600181600116156101000203166002900480601f016020809104026020016040519081016040528092919081815260200182805460018160011615610100020316600290048015611b9a5780601f10611b6f57610100808354040283529160200191611b9a565b820191906000526020600020905b815481529060010190602001808311611b7d57829003601f168201915b5050505050905090565b611bad33610e62565b1515611c04576040517f08c379a000000000000000000000000000000000000000000000000000000000815260040180806020018281038252602e815260200180613bf4602e913960400191505060405180910390fd5b611c0d81613071565b50565b611c19336125a1565b565b6000600360009054906101000a900460ff16905090565b6000600360009054906101000a900460ff16151515611cb9576040517f08c379a00000000000000000000000000000000000000000000000000000000081526004018080602001828103825260198152602001807f5061757361626c653a205472616e73666572207061757365640000000000000081525060200191505060405180910390fd5b600073ffffffffffffffffffffffffffffffffffffffff168373ffffffffffffffffffffffffffffffffffffffff1614151515611d5e576040517f08c379a00000000000000000000000000000000000000000000000000000000081526004018080602001828103825260208152602001807f46433a207472616e7366657220746f20746865207a65726f206164647265737381525060200191505060405180910390fd5b600d60008473ffffffffffffffffffffffffffffffffffffffff1673ffffffffffffffffffffffffffffffffffffffff16815260200190815260200160002060009054906101000a900460ff161515611e70576001600d60008573ffffffffffffffffffffffffffffffffffffffff1673ffffffffffffffffffffffffffffffffffffffff16815260200190815260200160002060006101000a81548160ff021916908315150217905550600e8390806001815401808255809150509060018203906000526020600020016000909192909190916101000a81548173ffffffffffffffffffffffffffffffffffffffff021916908373ffffffffffffffffffffffffffffffffffffffff160217905550505b611f3e82611f30611ee2606460095401611ed4600954600b60003373ffffffffffffffffffffffffffffffffffffffff1673ffffffffffffffffffffffffffffffffffffffff168152602001908152602001600020546130cb90919063ffffffff16565b61315590919063ffffffff16565b600a60003373ffffffffffffffffffffffffffffffffffffffff1673ffffffffffffffffffffffffffffffffffffffff1681526020019081526020016000205461284d90919063ffffffff16565b6128d790919063ffffffff16565b50600a60003373ffffffffffffffffffffffffffffffffffffffff1673ffffffffffffffffffffffffffffffffffffffff1681526020019081526020016000205482111515611f9757611f923384846131e8565b61203e565b611ff33384611fee600a60003373ffffffffffffffffffffffffffffffffffffffff1673ffffffffffffffffffffffffffffffffffffffff16815260200190815260200160002054866128d790919063ffffffff16565b613444565b61203d3384600a60003373ffffffffffffffffffffffffffffffffffffffff1673ffffffffffffffffffffffffffffffffffffffff168152602001908152602001600020546131e8565b5b8273ffffffffffffffffffffffffffffffffffffffff163373ffffffffffffffffffffffffffffffffffffffff167fddf252ad1be2c89b69c2b068fc378daa952ba7f163c4a11628f55a4df523b3ef846040518082815260200191505060405180910390a36001905092915050565b60006120c38260006124c190919063ffffffff16565b9050919050565b6120d3336120ad565b806120e357506120e233610e62565b5b151561213a576040517f08c379a0000000000000000000000000000000000000000000000000000000008152600401808060200182810382526039815260200180613c446039913960400191505060405180910390fd5b565b612145336117d4565b80612155575061215433610e62565b5b15156121ac576040517f08c379a0000000000000000000000000000000000000000000000000000000008152600401808060200182810382526039815260200180613b996039913960400191505060405180910390fd5b6121b46137fd565b6121bc61387d565b6121c4612e89565b565b6121cf33610e62565b1515612226576040517f08c379a000000000000000000000000000000000000000000000000000000000815260040180806020018281038252602e815260200180613bf4602e913960400191505060405180910390fd5b600360009054906101000a900460ff1615156122aa576040517f08c379a000000000000000000000000000000000000000000000000000000000815260040180806020018281038252601d8152602001807f5061757361626c653a205472616e73666572206e6f742070617573656400000081525060200191505060405180910390fd5b8060098190555050565b6000600954905090565b6122c7336117d4565b806122d757506122d633610e62565b5b151561232e576040517f08c379a0000000000000000000000000000000000000000000000000000000008152600401808060200182810382526039815260200180613b996039913960400191505060405180910390fd5b6123366137fd565b61233e612e09565b6123466138fd565b565b61235133610e62565b15156123a8576040517f08c379a000000000000000000000000000000000000000000000000000000000815260040180806020018281038252602e815260200180613bf4602e913960400191505060405180910390fd5b600360029054906101000a900460ff1615151561242d576040517f08c379a00000000000000000000000000000000000000000000000000000000081526004018080602001828103825260188152602001807f5061757361626c653a204d69677261746520706175736564000000000000000081525060200191505060405180910390fd5b8060088190555050565b612440336117d4565b80612450575061244f33610e62565b5b15156124a7576040517f08c379a0000000000000000000000000000000000000000000000000000000008152600401808060200182810382526039815260200180613b996039913960400191505060405180910390fd5b6124af6137fd565b6124b7612e09565b6124bf612e89565b565b60008073ffffffffffffffffffffffffffffffffffffffff168273ffffffffffffffffffffffffffffffffffffffff161415151561254a576040517f08c379a0000000000000000000000000000000000000000000000000000000008152600401808060200182810382526022815260200180613bd26022913960400191505060405180910390fd5b8260000160008373ffffffffffffffffffffffffffffffffffffffff1673ffffffffffffffffffffffffffffffffffffffff16815260200190815260200160002060009054906101000a900460ff16905092915050565b6125b581600061397d90919063ffffffff16565b8073ffffffffffffffffffffffffffffffffffffffff167fe94479a9f7e1952cc78f2d6baab678adc1b772d936c6583def489e524cb6669260405160405180910390a250565b600073ffffffffffffffffffffffffffffffffffffffff168273ffffffffffffffffffffffffffffffffffffffff16141515156126a0576040517f08c379a000000000000000000000000000000000000000000000000000000000815260040180806020018281038252601c8152602001807f46433a206d696e7420746f20746865207a65726f20616464726573730000000081525060200191505060405180910390fd5b6007546126bd826126af610e41565b61284d90919063ffffffff16565b11151515612733576040517f08c379a00000000000000000000000000000000000000000000000000000000081526004018080602001828103825260108152602001807f46433a206361702065786365656465640000000000000000000000000000000081525060200191505060405180910390fd5b6127488160085461284d90919063ffffffff16565b6008819055506127a081600a60008573ffffffffffffffffffffffffffffffffffffffff1673ffffffffffffffffffffffffffffffffffffffff1681526020019081526020016000205461284d90919063ffffffff16565b600a60008473ffffffffffffffffffffffffffffffffffffffff1673ffffffffffffffffffffffffffffffffffffffff168152602001908152602001600020819055508173ffffffffffffffffffffffffffffffffffffffff16600073ffffffffffffffffffffffffffffffffffffffff167fddf252ad1be2c89b69c2b068fc378daa952ba7f163c4a11628f55a4df523b3ef836040518082815260200191505060405180910390a35050565b60008082840190508381101515156128cd576040517f08c379a000000000000000000000000000000000000000000000000000000000815260040180806020018281038252601b8152602001807f536166654d6174683a206164646974696f6e206f766572666c6f77000000000081525060200191505060405180910390fd5b8091505092915050565b6000828211151515612951576040517f08c379a000000000000000000000000000000000000000000000000000000000815260040180806020018281038252601e8152602001807f536166654d6174683a207375627472616374696f6e206f766572666c6f77000081525060200191505060405180910390fd5b600082840390508091505092915050565b60008183111561297457819050612978565b8290505b92915050565b600073ffffffffffffffffffffffffffffffffffffffff168273ffffffffffffffffffffffffffffffffffffffff1614151515612a23576040517f08c379a000000000000000000000000000000000000000000000000000000000815260040180806020018281038252601e8152602001807f46433a206275726e2066726f6d20746865207a65726f2061646472657373000081525060200191505060405180910390fd5b612a7581600a60008573ffffffffffffffffffffffffffffffffffffffff1673ffffffffffffffffffffffffffffffffffffffff168152602001908152602001600020546128d790919063ffffffff16565b600a60008473ffffffffffffffffffffffffffffffffffffffff1673ffffffffffffffffffffffffffffffffffffffff16815260200190815260200160002081905550612acd816008546128d790919063ffffffff16565b6008819055505050565b600073ffffffffffffffffffffffffffffffffffffffff168273ffffffffffffffffffffffffffffffffffffffff1614151515612b7c576040517f08c379a000000000000000000000000000000000000000000000000000000000815260040180806020018281038252601e8152602001807f46433a206275726e2066726f6d20746865207a65726f2061646472657373000081525060200191505060405180910390fd5b612bce81600b60008573ffffffffffffffffffffffffffffffffffffffff1673ffffffffffffffffffffffffffffffffffffffff168152602001908152602001600020546128d790919063ffffffff16565b600b60008473ffffffffffffffffffffffffffffffffffffffff1673ffffffffffffffffffffffffffffffffffffffff16815260200190815260200160002081905550612c26816008546128d790919063ffffffff16565b6008819055505050565b600073ffffffffffffffffffffffffffffffffffffffff168273ffffffffffffffffffffffffffffffffffffffff1614151515612cd5576040517f08c379a000000000000000000000000000000000000000000000000000000000815260040180806020018281038252601e8152602001807f46433a206275726e2066726f6d20746865207a65726f2061646472657373000081525060200191505060405180910390fd5b612d2781600c60008573ffffffffffffffffffffffffffffffffffffffff1673ffffffffffffffffffffffffffffffffffffffff168152602001908152602001600020546128d790919063ffffffff16565b600c60008473ffffffffffffffffffffffffffffffffffffffff1673ffffffffffffffffffffffffffffffffffffffff16815260200190815260200160002081905550612d7f816008546128d790919063ffffffff16565b6008819055505050565b6000600360006101000a81548160ff0219169083151502179055507f27b779563480879c8e2872999840b721537eb09dccf94115a2276ca341cdbb5233604051808273ffffffffffffffffffffffffffffffffffffffff1673ffffffffffffffffffffffffffffffffffffffff16815260200191505060405180910390a1565b6001600360016101000a81548160ff0219169083151502179055507f1c734234efe17d5f92978089797af73272adfda26b905f6818b2591f162a9fc833604051808273ffffffffffffffffffffffffffffffffffffffff1673ffffffffffffffffffffffffffffffffffffffff16815260200191505060405180910390a1565b6001600360026101000a81548160ff0219169083151502179055507fb91efbd7405635fab6a9294d4fffa107f09b1ef48033d8382d84c660d5ee53bf33604051808273ffffffffffffffffffffffffffffffffffffffff1673ffffffffffffffffffffffffffffffffffffffff16815260200191505060405180910390a1565b612f1d81600161397d90919063ffffffff16565b8073ffffffffffffffffffffffffffffffffffffffff167fcd265ebaf09df2871cc7bd4133404a235ba12eff2041bb89d9c714a2621c7c7e60405160405180910390a250565b612f77816002613a3c90919063ffffffff16565b8073ffffffffffffffffffffffffffffffffffffffff167f44d6d25963f097ad14f29f06854a01f575648a1ef82f30e562ccd3889717e33960405160405180910390a250565b612fd1816001613a3c90919063ffffffff16565b8073ffffffffffffffffffffffffffffffffffffffff167f6719d08c1888103bea251a4ed56406bd0c3e69723c8a1686e017e7bbe159b6f860405160405180910390a250565b61302b81600261397d90919063ffffffff16565b8073ffffffffffffffffffffffffffffffffffffffff167fa3b62bc36326052d97ea62d63c3d60308ed4c3ea8ac079dd8499f1e9c4f80c0f60405160405180910390a250565b613085816000613a3c90919063ffffffff16565b8073ffffffffffffffffffffffffffffffffffffffff167f6ae172837ea30b801fbfcdd4108aa1d5bf8ff775444fd70256b44e6bf3dfc3f660405160405180910390a250565b6000808314156130de576000905061314f565b600082840290508284828115156130f157fe5b0414151561314a576040517f08c379a0000000000000000000000000000000000000000000000000000000008152600401808060200182810382526021815260200180613b786021913960400191505060405180910390fd5b809150505b92915050565b600080821115156131ce576040517f08c379a000000000000000000000000000000000000000000000000000000000815260040180806020018281038252601a8152602001807f536166654d6174683a206469766973696f6e206279207a65726f00000000000081525060200191505060405180910390fd5b600082848115156131db57fe5b0490508091505092915050565b600073ffffffffffffffffffffffffffffffffffffffff168373ffffffffffffffffffffffffffffffffffffffff1614151515613270576040517f08c379a0000000000000000000000000000000000000000000000000000000008152600401808060200182810382526022815260200180613c226022913960400191505060405180910390fd5b600073ffffffffffffffffffffffffffffffffffffffff168273ffffffffffffffffffffffffffffffffffffffff1614151515613315576040517f08c379a00000000000000000000000000000000000000000000000000000000081526004018080602001828103825260208152602001807f46433a207472616e7366657220746f20746865207a65726f206164647265737381525060200191505060405180910390fd5b61336781600a60008673ffffffffffffffffffffffffffffffffffffffff1673ffffffffffffffffffffffffffffffffffffffff168152602001908152602001600020546128d790919063ffffffff16565b600a60008573ffffffffffffffffffffffffffffffffffffffff1673ffffffffffffffffffffffffffffffffffffffff168152602001908152602001600020819055506133fc81600b60008573ffffffffffffffffffffffffffffffffffffffff1673ffffffffffffffffffffffffffffffffffffffff1681526020019081526020016000205461284d90919063ffffffff16565b600b60008473ffffffffffffffffffffffffffffffffffffffff1673ffffffffffffffffffffffffffffffffffffffff16815260200190815260200160002081905550505050565b600073ffffffffffffffffffffffffffffffffffffffff168373ffffffffffffffffffffffffffffffffffffffff16141515156134cc576040517f08c379a0000000000000000000000000000000000000000000000000000000008152600401808060200182810382526022815260200180613c226022913960400191505060405180910390fd5b600073ffffffffffffffffffffffffffffffffffffffff168273ffffffffffffffffffffffffffffffffffffffff1614151515613571576040517f08c379a00000000000000000000000000000000000000000000000000000000081526004018080602001828103825260208152602001807f46433a207472616e7366657220746f20746865207a65726f206164647265737381525060200191505060405180910390fd5b60006135a561359e6009546135906064866130cb90919063ffffffff16565b61315590919063ffffffff16565b6001613b19565b905061360b6135bd828461284d90919063ffffffff16565b600b60008773ffffffffffffffffffffffffffffffffffffffff1673ffffffffffffffffffffffffffffffffffffffff168152602001908152602001600020546128d790919063ffffffff16565b600b60008673ffffffffffffffffffffffffffffffffffffffff1673ffffffffffffffffffffffffffffffffffffffff168152602001908152602001600020819055506136a081600c60008773ffffffffffffffffffffffffffffffffffffffff1673ffffffffffffffffffffffffffffffffffffffff1681526020019081526020016000205461284d90919063ffffffff16565b600c60008673ffffffffffffffffffffffffffffffffffffffff1673ffffffffffffffffffffffffffffffffffffffff1681526020019081526020016000208190555061373582600b60008673ffffffffffffffffffffffffffffffffffffffff1673ffffffffffffffffffffffffffffffffffffffff1681526020019081526020016000205461284d90919063ffffffff16565b600b60008573ffffffffffffffffffffffffffffffffffffffff1673ffffffffffffffffffffffffffffffffffffffff168152602001908152602001600020819055508373ffffffffffffffffffffffffffffffffffffffff167f625fed9875dada8643f2418b838ae0bc78d9a148a18eee4ee1979ff0f3f5d4276137e26137db6009546137cd6064886130cb90919063ffffffff16565b61315590919063ffffffff16565b6001613b19565b6040518082815260200191505060405180910390a250505050565b6001600360006101000a81548160ff0219169083151502179055507f483d42b2ec355eefc30508020d123de3c2fca2f0d6f8e751f98449099242b76b33604051808273ffffffffffffffffffffffffffffffffffffffff1673ffffffffffffffffffffffffffffffffffffffff16815260200191505060405180910390a1565b6000600360016101000a81548160ff0219169083151502179055507fa854ea59322d4b14774ee2cca1187710017c50686e8af5272b10a6aa296771f133604051808273ffffffffffffffffffffffffffffffffffffffff1673ffffffffffffffffffffffffffffffffffffffff16815260200191505060405180910390a1565b6000600360026101000a81548160ff0219169083151502179055507f1503b9ff1c873ebf398bb3115b185db2a83a9d25e1091d3e4fc62d0221cc1b7333604051808273ffffffffffffffffffffffffffffffffffffffff1673ffffffffffffffffffffffffffffffffffffffff16815260200191505060405180910390a1565b61398782826124c1565b15156139de576040517f08c379a0000000000000000000000000000000000000000000000000000000008152600401808060200182810382526021815260200180613b576021913960400191505060405180910390fd5b60008260000160008373ffffffffffffffffffffffffffffffffffffffff1673ffffffffffffffffffffffffffffffffffffffff16815260200190815260200160002060006101000a81548160ff0219169083151502179055505050565b613a4682826124c1565b151515613abb576040517f08c379a000000000000000000000000000000000000000000000000000000000815260040180806020018281038252601f8152602001807f526f6c65733a206163636f756e7420616c72656164792068617320726f6c650081525060200191505060405180910390fd5b60018260000160008373ffffffffffffffffffffffffffffffffffffffff1673ffffffffffffffffffffffffffffffffffffffff16815260200190815260200160002060006101000a81548160ff0219169083151502179055505050565b600081831015613b2b57819050613b2f565b8290505b9291505056fe46433a204d6967726174696f6e20746f20746865207a65726f2061646472657373526f6c65733a206163636f756e7420646f6573206e6f74206861766520726f6c65536166654d6174683a206d756c7469706c69636174696f6e206f766572666c6f77506175736572526f6c653a2063616c6c657220646f6573206e6f742068617665207468652050617573657220726f6c65206f722061626f7665526f6c65733a206163636f756e7420697320746865207a65726f206164647265737341646d696e526f6c653a2063616c6c657220646f6573206e6f742068617665207468652041646d696e20726f6c6546433a207472616e736665722066726f6d20746865207a65726f20616464726573734d696e746572526f6c653a2063616c6c657220646f6573206e6f74206861766520746865204d696e74657220726f6c65206f722061626f7665a165627a7a72305820bf2aa9d42f424e490310a4f6329f7e66e440b62af65c81cdf73389f6f40a6c7a0029526f6c65733a206163636f756e7420697320746865207a65726f2061646472657373",
  "source": "pragma solidity ^0.5.0;\r\n\r\n//import \"github.com/OpenZeppelin/openzeppelin-solidity/contracts/math/SafeMath.sol\";\r\nimport \"node_modules/openzeppelin-solidity/contracts/math/SafeMath.sol\";\r\n\r\nimport \"./IFC.sol\";\r\nimport \"./FCPausable.sol\";\r\n\r\ncontract FC is IFC, FCPausable\r\n{\r\n    using SafeMath for uint256;\r\n\r\n    string private _name;\r\n    string private _symbol;\r\n    uint8 private _decimals;\r\n    uint256 private _cap;\r\n    uint256 private _totalSupply;\r\n    uint256 private _circulationRatio; // For r units of FC, lock 100 FC\r\n    mapping (address => uint256) private _confluxBalances; // Conflux Pool\r\n    mapping (address => uint256) private _personalBalances; // Personal Pool\r\n    mapping (address => uint256) private _personalLockedBalances; // Personal Locked Pool\r\n\r\n    mapping (address => bool) private _accountCheck;\r\n    address[] private _accountList;\r\n\r\n    constructor(\r\n        /*string memory name,\r\n        string memory symbol,\r\n        uint8 decimals,\r\n        uint256 cap*/\r\n    )\r\n        FCPausable()\r\n        public\r\n    {\r\n        /*\r\n        require(cap > 0, \"Cap has to be greater than 0\");\r\n        _cap = cap;\r\n        _name = name;\r\n        _symbol = symbol;\r\n        _decimals = decimals;\r\n        _circulationRatio = 100;\r\n        */\r\n        _cap = 100000000;\r\n        _name = \"FansCoin\";\r\n        _symbol = \"FC\";\r\n        _decimals = 18;\r\n        _circulationRatio = 100;\r\n    }\r\n\r\n    function name() public view returns (string memory) {\r\n        return _name;\r\n    }\r\n\r\n    function symbol() public view returns (string memory) {\r\n        return _symbol;\r\n    }\r\n\r\n    function decimals() public view returns (uint8) {\r\n        return _decimals;\r\n    }\r\n\r\n    function cap() public view returns (uint256) {\r\n        return _cap;\r\n    }\r\n\r\n    function totalSupply() public view returns (uint256) {\r\n        return _totalSupply;\r\n    }\r\n\r\n    function balanceOf(address account) public view returns (uint256) {\r\n        return (_confluxBalances[account] + _personalBalances[account] + _personalLockedBalances[account]);\r\n    }\r\n\r\n    function circulationRatio() public view returns (uint256) {\r\n        return _circulationRatio;\r\n    }\r\n\r\n    function stateOf(address account) public view returns (uint256, uint256, uint256) {\r\n        return (_confluxBalances[account], _personalBalances[account], _personalLockedBalances[account]);\r\n    }\r\n\r\n    // Data Migration\r\n    function accountList() public view returns (address[] memory) {\r\n        return _accountList;\r\n    }\r\n\r\n    function setStateOf(address account, uint256 ConfluxPool, uint256 Personal, uint256 Locked) public onlyPauser whenMigrateNotPaused {\r\n        require(account != address(0), \"FC: Migration to the zero address\");\r\n\r\n        if (!_accountCheck[account]) {\r\n            _accountCheck[account] = true;\r\n            _accountList.push(account);\r\n        }\r\n\r\n        _confluxBalances[account] = ConfluxPool;\r\n        _personalBalances[account] = Personal;\r\n        _personalLockedBalances[account] = Locked;\r\n\r\n        emit Write(account, ConfluxPool, Personal, Locked);\r\n    }\r\n\r\n    function setTotalSupply(uint256 total) public onlyAdmin whenMigrateNotPaused {\r\n        _totalSupply = total;\r\n    }\r\n\r\n    function setCirculationRatio(uint256 value) public onlyAdmin whenTransferPaused {\r\n        _circulationRatio = value;\r\n    }\r\n\r\n    function mint(address account, uint256 value) public onlyMinter returns (bool) {\r\n        if (!_accountCheck[account]) {\r\n            _accountCheck[account] = true;\r\n            _accountList.push(account);\r\n        }\r\n\r\n        _mint(account, value);\r\n        return true;\r\n    }\r\n\r\n    function transfer(address recipient, uint256 value) public whenTransferNotPaused returns (bool) {\r\n        require(recipient != address(0), \"FC: transfer to the zero address\");\r\n\r\n        if (!_accountCheck[recipient]) {\r\n            _accountCheck[recipient] = true;\r\n            _accountList.push(recipient);\r\n        }\r\n\r\n        // If the given amount is greater than\r\n        // the unlocked balance of the sender, revert\r\n        _confluxBalances[msg.sender].add(_personalBalances[msg.sender].mul(_circulationRatio).div(_circulationRatio + 100)).sub(value);\r\n\r\n        // Favor Conflux Pool due to the lack of circulation restriction\r\n        if (value <= _confluxBalances[msg.sender]) {\r\n            _transferC2P(msg.sender, recipient, value);\r\n        } else {\r\n            _transferP2P(msg.sender, recipient, value.sub(_confluxBalances[msg.sender]));\r\n            _transferC2P(msg.sender, recipient, _confluxBalances[msg.sender]);\r\n        }\r\n\r\n        emit Transfer(msg.sender, recipient, value);\r\n        return true;\r\n    }\r\n\r\n    function burn(uint256 value) public whenBurnNotPaused {\r\n        require(msg.sender != address(0), \"FC: burn from the zero address\");\r\n        // If the given amount is greater than\r\n        // the balance of the sender, revert\r\n        _confluxBalances[msg.sender].add(_personalBalances[msg.sender]).add(_personalLockedBalances[msg.sender]).sub(value);\r\n\r\n        // Personal Locked Pool > Personal Pool > Conflux Pool\r\n        _burnCPool(msg.sender, value > _personalBalances[msg.sender].add(_personalLockedBalances[msg.sender]) ?\r\n            _min(value.sub(_personalLockedBalances[msg.sender]).sub(_personalBalances[msg.sender]), _confluxBalances[msg.sender]) : 0);\r\n\r\n        _burnPPool(msg.sender, value > _personalLockedBalances[msg.sender] ?\r\n            _min(value.sub(_personalLockedBalances[msg.sender]), _personalBalances[msg.sender]): 0);\r\n\r\n        _burnPPoolLocked(msg.sender, _min(value, _personalLockedBalances[msg.sender]));\r\n\r\n        emit Transfer(msg.sender, address(0), value);\r\n    }\r\n\r\n    //---------- Helper Begin ----------//\r\n    function _mint(address account, uint256 value) internal {\r\n        require(account != address(0), \"FC: mint to the zero address\");\r\n        require(totalSupply().add(value) <= _cap, \"FC: cap exceeded\");\r\n\r\n        _totalSupply = _totalSupply.add(value);\r\n        _confluxBalances[account] = _confluxBalances[account].add(value);\r\n        emit Transfer(address(0), account, value);\r\n    }\r\n\r\n    function _transferC2P(address sender, address recipient, uint256 value) internal {\r\n        require(sender != address(0), \"FC: transfer from the zero address\");\r\n        require(recipient != address(0), \"FC: transfer to the zero address\");\r\n\r\n        _confluxBalances[sender] = _confluxBalances[sender].sub(value);\r\n        _personalBalances[recipient] = _personalBalances[recipient].add(value);\r\n    }\r\n\r\n    function _transferP2P(address sender, address recipient, uint256 value) internal {\r\n        require(sender != address(0), \"FC: transfer from the zero address\");\r\n        require(recipient != address(0), \"FC: transfer to the zero address\");\r\n\r\n        uint256 lockedAmount = _max(value.mul(100).div(_circulationRatio), 1);\r\n\r\n        // Spend: -(value + value * 100 / r)\r\n        _personalBalances[sender] = _personalBalances[sender].sub(value.add(lockedAmount));\r\n\r\n        // Lock: + value * 100 / r, at least 1\r\n        _personalLockedBalances[sender] = _personalLockedBalances[sender].add(lockedAmount);\r\n\r\n        // Transfer: +value\r\n        _personalBalances[recipient] = _personalBalances[recipient].add(value);\r\n\r\n        emit Lock(sender, _max(value.mul(100).div(_circulationRatio), 1));\r\n    }\r\n\r\n    function _burnPPoolLocked(address account, uint256 value) internal {\r\n        require(account != address(0), \"FC: burn from the zero address\");\r\n        _personalLockedBalances[account] = _personalLockedBalances[account].sub(value);\r\n        _totalSupply = _totalSupply.sub(value);\r\n    }\r\n\r\n    function _burnPPool(address account, uint256 value) internal {\r\n        require(account != address(0), \"FC: burn from the zero address\");\r\n        _personalBalances[account] = _personalBalances[account].sub(value);\r\n        _totalSupply = _totalSupply.sub(value);\r\n    }\r\n\r\n    function _burnCPool(address account, uint256 value) internal {\r\n        require(account != address(0), \"FC: burn from the zero address\");\r\n        _confluxBalances[account] = _confluxBalances[account].sub(value);\r\n        _totalSupply = _totalSupply.sub(value);\r\n    }\r\n\r\n    function _min(uint256 value1, uint256 value2) internal pure returns (uint256) {\r\n        if (value1 > value2) {\r\n            return value2;\r\n        }\r\n        return value1;\r\n    }\r\n\r\n    function _max(uint256 value1, uint256 value2) internal pure returns (uint256) {\r\n        if (value1 < value2) {\r\n            return value2;\r\n        }\r\n        return value1;\r\n    }\r\n    //---------- Helper End ------------//\r\n}",
  "sourcePath": "/mnt/d/conflux-bounty/contracts/FC.sol",
  "compiler": {
    "name": "solc",
    "version": "0.5.2+commit.1df8f40c.Emscripten.clang"
  },
  "schemaVersion": "3.0.10",
  "updatedAt": "2019-06-25T07:58:52.585Z",
  "devdoc": {
    "methods": {}
  },
  "userdoc": {
    "methods": {}
  }
}